:100000000C9454000C9469000C9469000C946900E1
:100010000C9469000C9469000C9469000C946900BC
:100020000C9469000C9469000C9469000C946900AC
:100030000C9469000C9469000C9469000C9469009C
:100040000C9469000C9469000C9469000C9469008C
:100050000C9469000C9469000C9469000C9469007C
:100060000C9469000C946900170119011B011D0112
:100070001F01210123012501270129012B012D0148
:100080002F013101330135013F0141014301450198
:10009000470149014B014D014F01510153015501E8
:1000A000570159015B015D0111241FBECFEFD8E05C
:1000B000DEBFCDBF11E0A0E0B1E0EEE1FAE002C0AA
:1000C00005900D92A231B107D9F70E944D040C940E
:1000D0000D050C9400009BB19F709BB99BB1282F1C
:1000E000207F922B9BB92898299AEFE3FCE931975E
:1000F000F1F700C000002998EFE3FCE93197F1F730
:1001000000C000009BB19F709BB92BB1F0E18F0242
:10011000C0011124822B8BB92898299A8FE39CE97E
:100120000197F1F700C000002998EFE3FCE931974F
:10013000F1F700C00000089583E084B980EF8AB928
:1001400088E20E946B008CE00E946B0086E00E94B7
:100150006B0081E00E946B0080E80C946B009BB107
:100160009F709BB99BB1282F207F922B9BB9289A17
:10017000299AEFE3FCE93197F1F700C000002998D4
:10018000EFE3F6E03197F1F700C000009BB19F70FC
:100190009BB92BB1F0E18F02C0011124822B8BB9E6
:1001A000289A299A8FE39CE90197F1F700C0000093
:1001B0002998EFE3F6E03197F1F700C000000895C9
:1001C000CF93DF93EC01899118161CF40E94AF00C5
:1001D000FACFDF91CF910895CF93DF93CDB7DEB7FC
:1001E00028970FB6F894DEBF0FBECDBF4AE0BE0120
:1001F0006F5F7F4F0E94D804CE0101960E94E000FD
:1002000028960FB6F894DEBF0FBECDBFDF91CF9119
:100210000895009719F0019751F108956031710523
:1002200008F04EC0FB01EC5CFF4F0C94B20480E878
:1002300045C081E843C082E841C083E83FC084E80C
:100240003DC085E83BC086E839C087E837C088E80C
:1002500035C089E833C08AE831C08BE82FC08CE80C
:100260002DC08DE82BC08EE829C08FE827C06031F3
:10027000710530F5FB01EC5BFF4F0C94B20480EC90
:100280001DC081EC1BC082EC19C083EC17C084EC4C
:1002900015C085EC13C086EC11C087EC0FC088EC4C
:1002A0000DC089EC0BC08AEC09C08BEC07C08CEC4C
:1002B00005C08DEC03C08EEC01C08FEC0C946B007C
:1002C000089581E00C946B0082E00C946B008FE049
:1002D0000C946B008CE00C946B000C946A0188E029
:1002E0000C946B00382FFC0180E04CE89E2F931B90
:1002F000961758F4219198E0582F5227869550FD73
:10030000842726959150C1F7F1CF08956F927F927F
:100310009F92AF92BF92CF92DF92EF92FF920F9394
:100320001F93CF93DF937C016B015A01922EE8015A
:10033000209721F40CEC0E94C10311C005E50E9436
:10034000C1033E0188E0680E711C0991292DA501A9
:10035000B601C7010E94C103C615D705B1F7DF91E9
:10036000CF911F910F91FF90EF90DF90CF90BF90B2
:10037000AF909F907F906F900895BF92CF92DF9241
:10038000EF92FF920F931F93CF93DF93EC017B01CA
:100390006A01B22E0E945103813071F02B2DA6010B
:1003A000B701CE010E94860104E42B2DA601B701FE
:1003B000CE010E94C10380E0DF91CF911F910F9188
:1003C000FF90EF90DF90CF90BF9008957F928F9233
:1003D0009F92AF92BF92CF92DF92EF92FF920F93D4
:1003E0001F93CF93DF936C015B014A01722EE701EB
:1003F0000E9451038130A9F1272DA401B501C60146
:100400000E9486010EEB272DA401B501C6010E94B2
:10041000C103870189E0E80EF11C272DA401B50175
:10042000C6010E941A04F80181938F01EE15FF05A1
:10043000A1F7288139814A815B816C817D818E8120
:100440009F81A0E00E94B80449F068E0CE010E94BC
:1004500072019885891304C080E003C083E001C065
:1004600082E0DF91CF911F910F91FF90EF90DF908D
:10047000CF90BF90AF909F908F907F9008956F9294
:100480007F928F929F92AF92CF92EF92FF920F93B3
:100490001F93CF93DF93EC014B013A01F22E0E94A0
:1004A0005103813019F12F2DA301B401CE010E9417
:1004B00086010EE42F2DA301B401CE010E94C103D9
:1004C0000E2D2F2DA301B401CE010E94C1030C2DCE
:1004D0002F2DA301B401CE010E94C1030A2D2F2D9F
:1004E000A301B401CE010E94C10380E0DF91CF914E
:1004F0001F910F91FF90EF90CF90AF909F908F90B2
:100500007F906F900895AF92BF92CF92DF92FF924B
:100510000F931F93CF93DF936C01EB015A01F22EDF
:100520000E9451038130A9F02F2DA501BE01C60103
:100530000E94860108E42F2DA501BE01C6010E947C
:10054000C103F60180818F2980838881F82AF8828F
:1005500080E0DF91CF911F910F91FF90DF90CF90BE
:10056000BF90AF900895CF92DF92EF92FF920F93DA
:100570001F93CF93DF93CDB7DEB729970FB6F894CB
:10058000DEBF0FBECDBF6701FE0131967F010E9425
:10059000E601882321F0F601118210820BC08A81C6
:1005A00090E0982F88272981820F911DF601918371
:1005B000808380E029960FB6F894DEBF0FBECDBFD2
:1005C000DF91CF911F910F91FF90EF90DF90CF902F
:1005D00008955F926F927F928F929F92AF92BF9297
:1005E000CF92DF92EF92FF920F931F93CF93DF93FF
:1005F0000115110509F440C0E801522E5A016B01A2
:100600007C010E9451038130E1F103E3252DA50116
:10061000B601C7010E94C1038E013E0188E0680E49
:10062000711C4E01252DA501B601C7010E941A04B7
:10063000F40181934F016E167F06A1F7FF80988128
:100640008981892B9A81892B9B81892B9C81892B7C
:100650009D81892B9E81892B8F2981F067E0CE01B6
:100660000E947201F81661F0F80111928F016E1666
:100670007F06D1F782E005C084E003C083E001C0BB
:1006800080E0DF91CF911F910F91FF90EF90DF906D
:10069000CF90BF90AF909F908F907F906F905F9022
:1006A0000895CF93DF93DC01FB013FB7F8948C9161
:1006B000822B8C938081822B80839C91822F8095CA
:1006C00098239C93CFE5D9E02197F1F700C0000073
:1006D0009081892380838FE891E00197F1F700C032
:1006E0000000EA018881CFE1D3E02197F1F700C053
:1006F00000009C91922B9C939081922B9083EFE52C
:10070000F9E03197F1F700C000003FBF282381E0F6
:1007100009F480E0DF91CF9108950F93FC019FB71A
:10072000F8948081822B8083DB018C91822B8C93C7
:100730008081322F309583238083002329F0BAE211
:10074000BA95F1F700C006C0AFE3B1E01197F1F739
:1007500000C000008081282B2083002339F0EFE3C4
:10076000F1E03197F1F700C0000004C0FAE0FA951B
:10077000F1F700C09FBF81E0011101C080E00F913F
:1007800008957F928F929F92AF92BF92CF92DF9205
:10079000EF92FF920F931F93CF93DF936C015B0156
:1007A0004A01E22E702EFFB6F894C8E0D0E011E0C6
:1007B000072D01232E2DA401B501C6010E948D0332
:1007C000110F2197A9F7FFBEDF91CF911F910F91D4
:1007D000FF90EF90DF90CF90BF90AF909F908F9061
:1007E0007F900895DC01FB013FB7F8948C91822B38
:1007F0008C938081822B80838C91922F909589237A
:100800008C938AE08A95F1F700C0808198239083C9
:10081000EAE1EA95F1F700C0FA018081EFEEF0E03D
:100820003197F1F700C000003FBF282381E009F4B1
:1008300080E008958F929F92AF92BF92CF92DF9205
:10084000EF92FF920F931F93CF93DF936C015B01A5
:100850004A01E22EFFB6F89408E010E0D1E0C0E0D3
:100860002E2DA401B501C6010E94F2038D9FC00187
:100870001124C82BDD0F0150110991F7FFBE8C2FF9
:10088000DF91CF911F910F91FF90EF90DF90CF906C
:10089000BF90AF909F908F900895CF93DF9300D03B
:1008A000CDB7DEB70E949C004AE0B42E5AE0C52EB8
:1008B000D12C00E010E024E043E250E064E270E07C
:1008C00085E290E00E94BD012FEF83ED90E321507F
:1008D00080409040E1F700C00000CE0101967C010D
:1008E00024E043E250E064E270E085E290E00E94A0
:1008F000B3020E94610189819A8197FD0F9634E0CD
:10090000959587953A95E1F70E94EC0080E191E09A
:100910000E94E00029813A81B29EC001B39E900DF1
:10092000112497FD0F9624E0959587952A95E1F778
:10093000B6010E949E040E94EC00BBCF97FB072EDD
:1009400016F4009407D077FD09D00E94C40407FC78
:1009500005D03EF4909581959F4F089570956195CF
:100960007F4F0895EE0FFF1F0590F491E02D09943D
:100970000024A7FD00942A173005400550056005A6
:100980007005800590050895AA1BBB1B51E107C0A7
:10099000AA1FBB1FA617B70710F0A61BB70B881F0F
:1009A000991F5A95A9F780959095BC01CD0108959E
:1009B000BB274A3031F4992322F4BDE2909581950A
:1009C0009F4F0C94E404BB27FB015527AA27880FEF
:1009D000991FAA1FA41710F0A41B83955051B9F7B3
:1009E000A05DAA3308F0A95DA193009779F7B11132
:1009F000B1931192CB010C94FD04DC01FC01672F33
:100A000071917723E1F7329704C07C916D937083E5
:0E0A10006291AE17BF07C8F30895F894FFCFA8
:100A1E0040004800500058006000680070007800E8
:020A2E002C009A
:0400000300000138C0
:00000001FF
